S019000052413245315F4C505332384446575F50322E7372656356
S31500000000B0680020B91F0000FD1C0000B51F0000ED
S31500000010B51F0000B51F0000B51F0000B51F00008A
S31500000020000000000000000000000000B51F0000F6
S31500000030B51F000000000000B51F0000B51F00003E
S31500000040D5150000351700002D180000DD1800003A
S315000000509D10000019100000291100005D1100001C
S31500000060000000000000000000000000000000008A
S31500000070000000000000000000000000000000007A
S31500000080000000000000000000000000000000006A
S31500000090000000000000000000000000000000005A
S31500000400FFFFFFFFDFCEFFFFFCFF0F00FFFF0F0028
S31500000410FCFF0F00FFFF0F00FCFF0F00FFFF0F00A8
S31500000420FCFF0F20FFFF0F20FCFF7F40FFFF7F40F8
S31500000430FCFF0D40FFFF0D40FFFFFFFF44F2DC1005
S3150000044044F2DC13C2F20000C2F2000310B583428C
S3150000045005D040F20003C0F2000303B1984710BD77
S3150000046044F2DC1044F2DC13C2F20000C2F20003D4
S315000004701B1A9A10D90F8918491010B529B140F2E4
S315000004800003C0F2000303B1984710BD10B544F253
S31500000490F014C2F20004237873B9FFF7CFFF40F2DD
S315000004A00003C0F200032BB147F64C10C0F2000067
S315000004B000E000BF0123237010BDC04640F20003D8
S315000004C0C0F2000310B54BB144F2F41147F64C10DC
S315000004D0C2F20001C0F2000000E000BFFFF7C0FF5B
S315000004E010BDC04610B540F2E83101F0D9FB10BD91
S315000004F0B0B56D4608005C1C11001A000833DB0815
S31500000500DB00EB1A00AF18709D46581C03F0AAF9E1
S3150000051044F25C20012322006946C2F2000001F089
S3150000052041F844F22023C2F20003186020BB44F2D3
S31500000530040544F20004C2F200052A78C2F200045F
S31500000540032A0BD023689BB10121012001F0A8FBEF
S3150000055023682A78013B2360032AF4D101232B70F8
S3150000056048F2A063BD46C0F2010300202360B0BD7F
S31500000570012AF3D100BEF1E747F2A43347F25C4209
S3150000058047F2BC30DD21C0F20003C0F20002C0F227
S31500000590000001F07FFBC046F0B5CE46474680B569
S315000005A083B099466B460800D87144F25C20D91D89
S315000005B090460123012244F22027C2F2000000F0F7
S315000005C0F1FFC2F20007386000284FD144F204055B
S315000005D044F20004C2F200052E78C2F20004032E93
S315000005E00CD02068002839D00120012101F058FBE9
S315000005F020682E7801382060032EF3D101232B705A
S3150000060048F2A06344F25C20C0F2010323604A462C
S3150000061000234146C2F2000000F004FF38600028C3
S3150000062033D12A78022A0CD02368DBB140F2E831B4
S31500000630012001F035FB23682A78013B2360022A5A
S31500000640F3D101232B7048F2A0630020C0F201030E
S31500000650236003B0C0BCB946B046F0BD012ECDD173
S3150000066000BECBE7012AECD100BEEAE747F2A4338D
S3150000067047F26C4247F2BC30FC21C0F20003C0F2E4
S315000006800002C0F2000001F005FB47F2A43347F276
S315000006906C4247F2BC3040F20E11C0F20003C0F2C9
S315000006A00002C0F2000001F0F5FAC0460379022B01
S315000006B005D144F21C230122C2F200031A707047CE
S315000006C0F0B5CE46474680B5914683B0002A20DD78
S315000006D0884644F2202644F21C240D000027C84414
S315000006E0C2F20006C2F20004002344F22C20EB56AC
S315000006F0012201A9C2F20000019300F02DFB306037
S3150000070000B100BE2378002BFCD00135277045458B
S31500000710EAD1484603B0C0BCB946B046F0BDC046B3
S3150000072044F204030122C2F200031A7008B10279EE
S315000007301A707047F0B5CE46474647F2884144F2F4
S315000007402C2080B544F220248FB0C0F20001C2F202
S31500000750000000F04DFBC2F20004206070B147F2C9
S31500000760A43347F27C4247F2BC306121C0F2000359
S31500000770C0F20002C0F2000001F08CFA47F2D0305D
S3150000078044F25C25C0F2000002F01AFF47F2BC41B9
S31500000790C2F200052800C0F2000100F0C3FE02000C
S315000007A0206070B147F2A43347F27C4247F2BC3076
S315000007B06721C0F20003C0F20002C0F2000001F09F
S315000007C069FA44F224200F21C2F2000000F0F6FC80
S315000007D040F2F143C0F200030A9340F29953C0F28B
S315000007E000030B9340F2E54340F2E831C0F2000308
S315000007F00A200C930D9501F053FA07A90AA800F0F8
S31500000800C3F86B4647F2D8301A7FB421C0F2000015
S3150000081002F072FE6B461B7FB42B00D0FEE702216E
S315000008200AA800F0FBF8012506AC21000AA800F092
S315000008302DF923781E002E402B42F6D131000AA84E
S3150000084000F0ECF808A90AA80E8000F0ABF840F218
S31500000850001309A9C0F207330AA8099300F0B4F9F6
S3150000086004A90AA800F052FA6B466A461B7C04A942
S31500000870AB430AA844F20C25137400F019FA05AC30
S31500000880C2F2000521000AA800F058F92378DA0719
S315000008909B071343F6D544F20C2209A9C2F20002C3
S315000008A00AA800F0C7F92B68A6B9181C984602F0EA
S315000008B0B7F80600A8680F0002F0B2F800900191A0
S315000008C047F2FC3032003B00C0F2000002F014FE9A
S315000008D00126D7E7181C994602F0A2F80600A86878
S315000008E00F0002F09DF8029003914146484601F040
S315000008F08BFE42F20001C4F2196101F033FC0021C3
S31500000900C4F2C82101F040FD0021C4F2C82101F063
S315000009103BFD02F085F80090019147F22840320035
S315000009203B00C0F2000002F0E7FD0126AAE7C04640
S3150000093010B538B94CF2000390220121C4F27E03AF
S31500000940995410BD0228FCD147F2EC4144F2242010
S31500000950C0F20001C2F2000000F0B2FCF1E7C046AE
S3150000096010B5040018B1C0686468A04710BD012026
S315000009704042FBE710B5040018B1C0682468A047E0
S3150000098010BD01204042FBE730B583B06B46DD1D4C
S315000009900C0001232A000F21FFF7E2FF2B782370BA
S315000009A003B030BD30B583B00D0001230E2101AA7E
S315000009B00400FFF7D5FF08B103B030BD6B461979C7
S315000009C07F232A780B409208D20113436A460E21F0
S315000009D013712000012301AAFFF7CCFF0028EBD1F9
S315000009E001236A4619212000FFF7BAFF0028E3D148
S315000009F020236A78A9785201134003220A40134340
S31500000A006A462321127820008A4313436A460A392C
S31500000A1013700123FFF7AEFFCEE7C04630B583B0B3
S31500000A200D000223112101AA0400FFF799FFA0B9C6
S31500000A306B466A461B7913705379012D21D0022D1E
S31500000A4000D065B16B4604221B7813436A46112118
S31500000A50137020000123FFF78DFF03B030BD6A46F7
S31500000A600821127820000A4369460A7001210B43C7
S31500000A7069460A714B7101AA02231121FFF77AFF19
S31500000A80EBE7802312785B42DFE7C046F0B5CE463F
S31500000A90474680B585B002AF01230C003A0011210C
S31500000AA08046FFF75DFF01AB994660B36D4603AE26
S31500000AB04B463A781B785107DB09C90F5B000B439D
S31500000AC03178D207CE07760F33438E07F60FF6003E
S31500000AD03343CE06F60F89063601C90FD20F3343CC
S31500000AE04901D2430B43402192010A4013432A781D
S31500000AF09206D20FD243D2011343237005B0C0BC75
S31500000B00B946B046F0BD01234A4624214046FFF7C8
S31500000B1027FF03AE08B16D46CAE70123320027213D
S31500000B204046FFF71DFF6D460028C1D101232A006C
S31500000B300B214046FFF714FFBAE7C046F0B5C6469C
S31500000B4000B584B003AB98460C000123424627212A
S31500000B500700FFF705FF02AE28B301AD43461A783A
S31500000B609307DB0FD207D20F5B0013433278D1070E
S31500000B70490F0B439107C90F5207C900D20F0B4308
S31500000B80120113432A789106C90F49010B435106F6
S31500000B90C90F8901D2090B43D2011343237004B054
S31500000BA080BCB846F0BD0123320024213800FFF78F
S31500000BB0D7FE01AD0028D1D101232A002621380015
S31500000BC0FFF7CEFECAE7C04670B582B00D0002231D
S31500000BD0102101AA0400FFF7C3FE08B102B070BDE0
S31500000BE06A46507978226978AE78C9000A400721AA
S31500000BF06B4631400A437F2110261B798B43E978E7
S31500000C001A438B07DB0F090131405B010B4340217F
S31500000C102D78AD0129400B43702188436946034373
S31500000C200A714B7120000223102101AAFFF7A2FED0
S31500000C30D4E7C04670B582B00E00140005236A469C
S31500000C402821FFF78DFE6B466A469B7852781B0279
S31500000C509B186A4612781B029B18050018026060F2
S31500000C603378EBB1012B19D101F092FED821890519
S31500000C7001F08AFB6B466A4620601B79D0781B021E
S31500000C80C01800B2A08101F083FE0021C4F2C82181
S31500000C9001F068FAA060280002B070BD0020E9E704
S31500000CA001F076FED621890501F06EFBE2E7C0462B
S31500000CB070B582B001AD0E0001232A001321040095
S31500000CC0FFF74EFEF8B9327893075107DB0FC90FCD
S31500000CD05B000B431107C90F89000B430E2111401E
S31500000CE0481E814109010B433721D207920E134357
S31500000CF02A780B408A4313432B702A0001232000D5
S31500000D002439FFF737FE02B070BDC04630B583B058
S31500000D1001AD0C002A0001231321FFF721FE2A78DA
S31500000D2093079106DB0FC90F5B000B43D107490FF1
S31500000D300B430F215207D20FD200134322780B40E8
S31500000D408A431343237003B030BDC04610B5FFF786
S31500000D50F1FC002010BDC0467B2330B5046AA5789F
S31500000D602B40A370802483789B079B0FD21A0261C5
S31500000D70CB18026AC3609378234393700323827867
S31500000D801340022B04D0036A0A78DA70002030BDC3
S31500000D900B884FF60061026A0B43D381F6E7C04623
S31500000DA0F0B5C64600B50500806A84B08C4690460C
S31500000DB06C46D8B12300060086CE86C336681E6010
S31500000DC0EB691B7803606346836043460371EB6AF5
S31500000DD0C3606B6A9847AB6A23B123CC23C31A005E
S31500000DE02368136004B080BCB846F0BD2000E7E776
S31500000DF043F60002F0B5C646C0F20022944600262D
S31500000E0000B50B78067063445B01C16103624B69F0
S31500000E100D0043628B6903210122C36283788662D7
S31500000E208B43134383706A780B2753425A41837866
S31500000E3001328B4313438370AB7A04009846EF5715
S31500000E40380000F0D9FF380000F080FF3800052791
S31500000E502200414600F088FF2B79EF57984638006C
S31500000E6000F0CAFF380000F071FF380007272200A3
S31500000E70414600F079FFAB79EF579846380000F00D
S31500000E80BBFF380000F062FF380009272200414608
S31500000E9000F06AFF2B7AEF579846380000F0ACFF57
S31500000EA0380000F053FF22004146380000F05CFF96
S31500000EB0EFF31087012080F3108846F6FC7329783B
S31500000EC0C4F204038C465A6880219046624609069D
S31500000ED0D14042468A435A605B6887F31088236A8A
S31500000EE09E70236A1E71236A5E72236A9E72236A4B
S31500000EF0DE72236A5E8340F207232A78D3401842C3
S31500000F0002D04022236ADA740622236A1A772B78E3
S31500000F1013B9236A3F4A9A82AB78EA781B01D2005A
S31500000F2013436A78032A00D16FE051424A410F21E8
S31500000F3052428A43F232216ADBB20B70236AFF26E1
S31500000F409A710223EA69206A117B49000B4020212D
S31500000F50437390785378400101400020DB01334011
S31500000F600B43216A087211780239012942D90326F6
S31500000F70216ADBB2CB715268216A93784B700B7889
S31500000F805078B343304003430B70D37859368B7493
S31500000F90C8791378B04333400343CB71002305204F
S31500000FA0E36023616361A361EE69033335781D4015
S31500000FB0E369185600F0FEFE0B20E369185600F0B0
S31500000FC0F9FE0720E369185600F0F4FE0920E369EC
S31500000FD0185600F0EFFE7023226A2B439370738934
S31500000FE00020238144F65513C5F24333636080BC69
S31500000FF0B846F0BD216A4E701278022A01D10E322F
S315000010001343226ADBB2D371C8E73D321343B232CF
S3150000101091E7C04600F8FFFF10B5EFF30384103CDC
S3150000102064B2200000F092FE44F2D423A400C2F27F
S315000010300003E058C3691B699BB1036903B110BD86
S31500001040026A7F2391780B4004210B43937000239F
S31500001050C360436A002BF2D080220021FFF7A0FE76
S31500001060EDE70369026A002BEBD003238478C1689D
S315000010702340022B0BD00B78D37082780369C168AA
S315000010809207920F9B1A8A180361C260D6E70B88F3
S315000010904FF600610B43D381EFE7C04610B582B02F
S315000010A0EFF30384103C64B2200000F04FFE44F2DC
S315000010B0D423A400C2F20003E4580323A278134009
S315000010C0022B0DD0236A5979A369C9B2019183B95C
S315000010D0636A1BB104222000FFF762FE02B010BD56
S315000010E040F2FF11236A1B8A1940A3690191002B64
S315000010F0EED09207920F606901A902F0B3FBA378C4
S3150000110062699B079B0FD2186261A269D31AA36119
S31500001110002BE3D1636A002BE0D0012200212000DE
S31500001120FFF73EFEDAE7C04610B5EFF3038444F25C
S31500001130D423103C64B2C2F20003A200D0587B2331
S31500001140026A91780B409370436A1BB10222002118
S31500001150FFF726FE200000F0F9FD10BD70B5EFF395
S31500001160038444F2D423103C64B2C2F20003A2000A
S31500001170D058032382781340022B19D0036A597979
S31500001180C9B238221D792A40ED0602D51D7FED072A
S315000011900BD538261D79B5431D71436A0BB1FFF790
S315000011A0FFFD200000F0D2FD70BD40252A43F0E788
S315000011B040F2FF11036A1A8A1140E2E7FF23012079
S315000011C00B4098404FF6FF73034002B91B04002200
S315000011D0C4F204029446090A4901614400208B6066
S315000011E07047C046F0B5DE4657464E464546E0B522
S315000011F0EFF31082012383F3108844F2D02BC2F25E
S31500001200000B5B461B6833B940F60051C4F204017B
S31500001210CB704033CB705B4659461B6801330B607D
S3150000122082F31088038800224BB380235B02994621
S31500001230224B40F6000440F2FF0C9846C4F2040428
S315000012404368D1005B1861469F881E683B0A0F40C1
S3150000125049461B010E420AD0D91989008A464546DD
S315000012600959294055462951414631402951DB1932
S315000012709B001E510132018893B29942E0D8EFF3E8
S315000012801082012383F310885B461B6823B15B46FB
S3150000129059461B68013B0B605B461B6833B940F639
S315000012A00051C4F20401CB708033CB7082F31088F6
S315000012B0F0BCBB46B246A946A046F0BDFFFFFEFF06
S315000012C045F2542310B5C5F24F0303600800FFF73B
S315000012D089FF002010BDC046F0B50400806B83B0C6
S315000012E06D4688B12B000200C0CAC0C3E36B017112
S315000012F00360636B9847A36B0BB103CD03C32B232A
S315000013000022E25403B0F0BD2800EFE74EF20003DE
S3150000131040F6007230B52C25C4F201031B6A83B077
S315000013200193019BC0F60072134001690193019A73
S31500001330019C0B7C455DDBB295B91205120F240E9C
S31500001340121B93409B0823B9082065E0013B002B44
S31500001350FAD04A78D209002AF8D1B323CB710169B1
S3150000136000232822835482690362C2612622845C98
S31500001370013284540432835402328354013283543A
S31500001380013283540132835403685C6A2378657999
S31500001390013B5A42534162782D0152002A43A579F6
S315000013A00433ED012A431343DBB2CB7010210269EB
S315000013B013790B4308211371026913798B43137157
S315000013C00269083113798B4313717F230169E2792E
S315000013D00C79D201234013430B7101210269537921
S315000013E00B4353710368DB7B5BB2002B0ADB1F21C7
S315000013F05A094EF200140B401E399940CEF20004F1
S3150000140092001151BF220369DA712C23C25C2AB9FA
S31500001410036902325A70002003B030BD0022C25464
S31500001420F9E7C04610B52A240355037A4161826163
S31500001430012B0AD125220021815401214268520044
S315000014400A43242142542622835429230122C254CA
S31500001450FFF75CFF10BDC0461F2270B503690D0083
S315000014601A70036940321A70036980321A70036871
S3150000147001695B6A04001A7920235B421A43D2B2DF
S315000014800A7401680269496AC9780B43DBB253746E
S31500001490036801695B6A9A78702312011340082277
S315000014A013438B7003685A6A13785278013B59428A
S315000014B04B415200043313434BF6C052CFF6F07241
S315000014C094460169DBB2CB7003685B6863445A1EBD
S315000014D093417F225B4293430269F73353710022A3
S315000014E003699A7103691120B332DA71697B285650
S315000014F0220000F093FC0F20697B2856220000F0A2
S315000015008DFC1020697B2856220000F087FC0E20F7
S315000015102200697B285600F081FC9F2223691A70FD
S3150000152070BDC04640F23052C0F240029446F8B553
S3150000153000250B78016063441B0203618B6804007D
S3150000154043600B7B0372CB6943630B6A8563C3639A
S31500001550EFF3108C012282F3108809260F7846F6E5
S31500001560FC73F61BB240C4F20403586890435860FB
S315000015705B688CF310882000FFF76EFF29236561F6
S31500001580A561E5612562E5540133E5540133E5546F
S315000015900133E55444F64313C5F249230020E360C2
S315000015A0F8BDC04610B52A240355037A416182610D
S315000015B0012B08D125220021815442682431520092
S315000015C042542622835429230022C254FFF79EFE4A
S315000015D010BDC04630B583B0EFF30380103840B27B
S315000015E000F0B4FBEFF3038344F2D422103B5BB26A
S315000015F09B00C2F200029C582D23E35C53BBA369F7
S31500001600022B21D9E369012B0ED11021226913790E
S315000016100B4308211371226913790B4310211371AF
S31500001620226913798B43137123685B6ADB79002B7C
S315000016303CD16A462369DB7CDBB2D371D3792D2397
S315000016400122E25403B030BD4021226913790B43D5
S315000016501371D7E7E569002DF4D023685B6ADB795F
S31500001660F3B9032D16D0022D25D0012D33D02369D1
S315000016706269D97C236AD154236A01332362E36900
S31500001680013BE361002BDDD14021226913798B43B5
S315000016901371D7E74021226913790B431371E6E7EB
S315000016A005212000FFF718FEE569DAE7052120008D
S315000016B0FFF712FEBDE71021226913790B430821BB
S315000016C01371226913790B4310211371226913795F
S315000016D08B431371CBE72A23E35C3BB908222169CC
S315000016E04B7A93434B7223695A70C0E70F202368E5
S315000016F0185600F081FB802322695B42D1790B43A7
S315000017001021D371226913790B43082113712269C1
S3150000171013798B4313712269083113798B43137143
S31500001720042223695A7022695379AB4353712C23DF
S31500001730E5549CE710B5EFF30380103840B200F093
S3150000174005FBEFF3038344F2D422103B5BB29B000C
S31500001750C2F200029C582723E35C002B39D12923CF
S31500001760E35CABBB23685B6ADB792BB12B23E35CC1
S3150000177013B9236A002B54D1E2692369002A39D1AF
S315000017807F22D9790A40DA712169C02201E0013A43
S315000017901AB1CB79DB09002BF9D110202368185632
S315000017A000F0D4FA102223689A56002A0BDB1F2178
S315000017B05309114001228A404EF200116033CEF2E5
S315000017C000019B005A5040212269D3790B43D37103
S315000017D010BD2623E35C032B1AD02423E25C236985
S315000017E09A742822A35C0133A354013AA35C013BFB
S315000017F0A354EDE7226A61698A5C9A74236A01330D
S315000018002362E369013BE361002BE1D12369B7E77A
S315000018102533E35C022BE0D12E33E35C002BD7D0DB
S31500001820DBE705212000FFF757FDA5E710B5EFF32D
S31500001830038344F2D422103B5BB29B00C2F2000247
S315000018409C5823685B6ADB793BBB2923E35C1BB1AD
S315000018502723E35C012B25D0E3699BB14021226954
S31500001860D3798B43D3712169C02201E0013A12B1C9
S31500001870CB795B06FAD4EFF30380103840B200F060
S3150000188065FA10BD2A33E35C8BB9082221694B7ACD
S3150000189093434B7223695A70E0E705212000FFF756
S315000018A01BFDD2E72F33E35C002BD7D0D4E70F2004
S315000018B02368185600F0A0FA802322695B42D1798A
S315000018C00B43D371042223695A702169033A4B7979
S315000018D093434B712C23E254C0E7C04670B5EFF337
S315000018E0038344F2D4221F20103B5BB2C2F20002F3
S315000018F09B009C582269537A517ADDB2814351721A
S3150000190003221A40DB0625D523695978490642D4B5
S3150000191000252B220121A154DD7120002168FFF74B
S315000019209BFD2623E561E25C0233E254A369B32200
S3150000193023622C23E554023BE55423690121200050
S31500001940DA71FFF7C9FCEFF30380103840B200F0FC
S31500001950FDF970BD002A57D12B070FD52B23E35C69
S31500001960002B40D129230321B322E35CC91A236942
S31500001970C9B2DA712000FFF7AFFCE4E72C23E25C82
S31500001980283B2B4032B3002BDDD02B23E35C002B0E
S31500001990E8D00121EEE7002ABAD15A785206D10FD3
S315000019A0002AD9DA2B22A154233A5A7023682169D6
S315000019B05A6A937910785279DB0112010343134373
S315000019C002221343DBB2CB700121226953790B4308
S315000019D05371B8E7002BB6D023685B6ADB79002B1E
S315000019E0B1D00421C6E700232621E361605C023101
S315000019F022696054A16921622C216354023963541F
S31500001A00B3330121D371B5E7236981E74EF20002B2
S31500001A10AA2110B5C4F2010204282ED0535CDB06BD
S31500001A20DC0F002BFADB54544EF20002AA21C4F25A
S31500001A300102535C002BFCD1A033D35C98421BD02F
S31500001A403623D35C3BB94EF200023C21C4F20102BC
S31500001A50535CDB07FCD54EF20002A021C4F2010262
S31500001A60535CDB06FCD450544EF20002A021C4F2B3
S31500001A700102535CDB06FCD410BD535CDB06FCD4D0
S31500001A80012353544EF20002AA21C4F20102535C10
S31500001A90DB06FCD4F0E7C0464EF20003262244F2F1
S31500001AA0DC11C4F20103985C1B6A8000C2F20001DB
S31500001AB041585B015B0F44F26032D940C2F200022A
S31500001AC0116070477047C0464EF2000340F2FE3286
S31500001AD05749C4F2010370B599524CF20002002036
S31500001AE043F6C871C4F27E02505444F2DC1446F642
S31500001AF00042C2F20004C0F2DC22226041F200225F
S31500001B00C0F27A02626048F2000241F60031A26039
S31500001B1022612622C0F2B701E160995C1A6A890047
S31500001B2061585201520F44F26035D14040F21342DF
S31500001B30C2F20005296098540921A222995440F264
S31500001B4080429A5C2AB940F281429B5C9B07002B3B
S31500001B5068D04EF2000640F28043C4F20106F25C01
S31500001B60002A53D04EF20003002240F28141C4F213
S31500001B7001035A5401395A544EF20002A023C4F20A
S31500001B800102D35CCBB13623D35C1BB93C21535C39
S31500001B90DB07FCD54EF20002A021C4F20102535C21
S31500001BA0DB06D80F002BFADB50544EF20002A021C0
S31500001BB0C4F20102535CDB06FCD44EF2000600229E
S31500001BC03223C4F20106F2543C32B35C1B07FCD547
S31500001BD040F2001303223362DA3BF254F25C336ABA
S31500001BE09200A2585B015B0FDA4001202A60FFF7E2
S31500001BF00DFF40F2FE330F4A0121F2524CF2000370
S31500001C0043F6C872C4F27E03995470BD0132F25491
S31500001C100121C82000F044F840F28042B35C012B59
S31500001C20FCD19FE740F2E830FFF74CFFA4E7C0463F
S31500001C3003A5FFFF00A5FFFF70B544F200042823AB
S31500001C400025C4F20404E5540121C82000F028F858
S31500001C5024232422E554A35C002BFCD10221A35C9F
S31500001C6024200B43A35444F20002C4F20402135C82
S31500001C709B07D90F002BFADB2223D15444F2000232
S31500001C802221C4F20402535C002BFCD170BDC04675
S31500001C907047C04600BEFEE701380028FCD17047F9
S31500001CA044F260324CF6002370B54143C2F20002A2
S31500001CB01468C3F69A330D00B3FBF4F4080040F23F
S31500001CC0E8320023002100F01FFA31B9B0FBF4F02E
S31500001CD0800808B1FFF7E0FF70BDA000B5FBF0F08B
S31500001CE040F2E8320023002100F00EFA0029F0D07D
S31500001CF001204042FFF7D0FFEEE7C04646F2000360
S31500001D0040F2201270B500240126C4F200039D5A49
S31500001D1020329B5A1D402B00E3401E420AD044F25B
S31500001D209C22C2F200029446A30063441B680BB1D6
S31500001D30E0B2984701340D2CEDD146F2000340F293
S31500001D403012C4F200039D5270BDC04646F2000335
S31500001D50C0308000C4F20003C25802490A40C25093
S31500001D60C3587047FFFFFEFFF0B5C64690464EF2D9
S31500001D700012FF240325CEF200029446220040F210
S31500001D8000370540ED008901AA400C40AC408308AD
S31500001D909B0000B56344DE59800096432643DE511E
S31500001DA044F2D4234246C2F200031A5080BCB8461D
S31500001DB0F0BDC046030046F2000210B5C033C4F2BF
S31500001DC000029B0099580B4C214099509B58BFF339
S31500001DD05F8F1F220123024093404EF20012CEF283
S31500001DE00002944640F2801240098000604483500D
S31500001DF0036010BDFFFFFEFF1F21012201408A4044
S31500001E004EF2001143092033CEF200019B005A50D6
S31500001E10BFF34F8FBFF36F8F7047C046F0B5C6460E
S31500001E2090464EF20012FF240325CEF2000294469D
S31500001E30220040F200370540ED008901AA400C401F
S31500001E40AC4083089B0000B56344DE59810096438D
S31500001E502643DE5144F2D4234246C2F200035A50CE
S31500001E60030046F20002C033C4F200029B009958F8
S31500001E700C4C214099509B58BFF35F8F1F220123C2
S31500001E80024093404EF20012CEF20002944640F217
S31500001E9080124009800060448350036080BCB846CD
S31500001EA0F0BDC046FFFFFEFF46F200000023C4F26D
S31500001EB0000047F23052C0F200029A1812781AB1A6
S31500001EC01900C03189000A500133202BF1D1704727
S31500001ED030B5EFF31081012383F3108844F25433B5
S31500001EE04000C2F200031A5A1AB11A5A013A92B2C3
S31500001EF01A521B5A83B94EF2000247F2505340F26F
S31500001F00FE34C4F20102C0F20003155B185A044BFA
S31500001F102B4383439BB2135381F3108830BDC046D5
S31500001F2000A5FFFF70B5EFF31081012383F310883E
S31500001F3044F254324000C2F20002135A83B94EF200
S31500001F40000447F2505540F2FE36C4F20104C0F2D6
S31500001F500005A35B2D5A2B434AF200552B43A3538E
S31500001F60135A01339BB2135281F3108870BDC046D9
S31500001F7044F25C3210B5C2F200020300106858B198
S31500001F80032103338B4346F2B041C318C2F200016A
S31500001F908B4207D8136010BD44F2B040C2F2000075
S31500001FA01060EDE701F04AFC0C230360012040427B
S31500001FB0F1E7C04600BE704710B500F003F8FEF723
S31500001FC0C5FEFEE7F0B54EF6005340F20005CEF230
S31500001FD00003C0F2000583B09D600020FEF7A8FC58
S31500001FE0FFF772FD6B460027DC1D27700120237862
S31500001FF0FFF798FFEFF31081012686F3108846F667
S31500002000FC73C4F204039A683C4802409A609A68DA
S3150000201081F3108840F60001C4F204010A68D20771
S31500002020D20F22700A68D207D20F22700A68D2072E
S31500002030D20F2270EFF3108186F310888022986801
S31500002040520502439A609B6881F310880120FFF7CE
S315000020503FFF0120FEF76CFC40F60053284AC4F20D
S3150000206000039F801A802A68264941F20000511811
S315000020709960DA6046F2000240F22011C4F20002D2
S31500002080505244F2B04244F2F010C2F20002C2F2E0
S3150000209000009E800021121A01F07EFB44F200002F
S315000020A044F2DC1247F65011C2F20000C2F20002FE
S315000020B0121AC0F2000101F0D5FB44F2D41544F225
S315000020C0D813C2F20005C2F200035B1B9E10002B60
S315000020D005DD002408CD01349847A642FADCFFF757
S315000020E0DBFCFFF7A9FD0220FEF722FCFFF7DCFE72
S315000020F00020FFF7CDFD03B0F0BDC046FFFFFFEFA8
S3150000210000A5FFFF00FCFFFFF0B54FF6FF750400CA
S31500002110CE462C40474615400E002900994680B50C
S31500002120130C0700000C61434543584363430C0CF2
S315000021305B19E4188C46A54203D980235B029846B6
S315000021404044230C61461B184FF6FF700840494671
S3150000215056437943240489192018C918C0BCB946C6
S31500002160B046F0BDF0B546464F46D646C0B5470028
S315000021704502C30F3F0E98460E1C6D0A002F56D01F
S31500002180FF2F21D0802340F2000940F2000AED0023
S31500002190DB041D437F3F730074021B0E640AF60FB7
S315000021A003B3FF2B4AD080220020E400D20414435C
S315000021B07F3B4246FF1A4B4672400F2B00D9AAE0DE
S315000021C06E499B00CB589F46002D59D1730074026F
S315000021D01B0E40F20809FF2740F2020A640AF60FB6
S315000021E0002BDED174BB0123424649467240194397
S315000021F00E2904D86248890041588F464246FF207E
S315000022000024C0052043D2071043E0BCBA46B146BD
S31500002210A846F0BD5346022BF0D0032B00D1A2E016
S3150000222042462C00012B34D100200024E9E7D5B921
S3150000223040F20409002740F2010AACE764B9022320
S31500002240FF3FD1E7200000F02FFC431F9C40762380
S315000022505B421B1A0020ACE703234A461A43914609
S315000022600320FC33A5E7280000F01EFC7627431F59
S315000022707F429D4040F2000940F2000A3F1A8AE779
S3150000228040F20C09FF2740F2030A84E703286CD0CA
S31500002290320038007F30002825DD630704D00F2385
S315000022A02340042B00D00434230103D53800354BDA
S315000022B080301C40FE28A2DCA401640AC0B2A0E75C
S315000022C080240022FF20E4039BE78023DB031D42DA
S315000022D001D01C424BD08024E4032C4364024246C6
S315000022E0FF20640A8DE701231B1A1B2B9CDC2100AF
S315000022F09E37D940BC400B00611E8C4123435907D1
S3150000230004D00F211940042900D00433590126D5E1
S315000023100120002475E76D016001854213D21B235D
S315000023200024013F0126290064006D00002901DB1D
S31500002330A84201D82D1A3443013B002BF3D16B1E62
S315000023409D412C43A5E71A2301242D1AEAE7981E7E
S3150000235043425841404232000024C0B251E79B013B
S3150000236000205C0A4DE746462C008023DB031C4315
S3150000237064023200FF20640A43E7C0465875000035
S3150000238098750000FFFFFFF7F0B54F464646D64664
S31500002390C0B546004502360E0F1C6D0AC40F002E4E
S315000023A000D1C4E0FF2E79D0802340F2000940F22C
S315000023B0000AED00DB041D437F3E7B025B0A984664
S315000023C07B001B0EFF0F002B78D0FF2B00D195E072
S315000023D042468021D200C9041143884600217F3B32
S315000023E0F6184B46721C0A2B74DC4B467C40022BBB
S315000023F000DCA6E048460123834040F230501842F4
S3150000240068D140F24020184200D0ECE0B938FF38DD
S31500002410184200D0DAE04FF6FF714746280C4346D3
S315000024200D4039400F001B0C6F4341435D43584339
S315000024306D183B0C5B19994203D9802149028C46E1
S3150000244060444FF6FF7519043D4049198D016F1E12
S31500002450BD411B0C890E1B180D439B011D431B011F
S3150000246000D4C5E0012369081D400D4310007F30EC
S31500002470002800DC93E06B0704D00F232B40042BCD
S3150000248000D004352B0103D5803210005D4B1D4072
S31500002490FE2853DCAB015B0AC0B226E0002D00D05B
S315000024A077E07B025B0A98467B001B0E40F2080928
S315000024B0FF2640F2020AFF0F002B86D14346002B6F
S315000024C055D14A4601331A4391464B460121721CA7
S315000024D00A2B8ADD5346022B30D0032B00D17BE03A
S315000024E05346012BC2D100200023C0051843E40740
S315000024F02043E0BCBA46B146A846F0BD330042468A
S31500002500FF33FAB3032249461143721C8946FF3250
S315000025100A2973DD0F295DD18023DB031D425BD0C1
S3150000252042461A4258D13C00FF201343DDE78DB9DD
S3150000253040F20409002640F2010A3EE7FF2000238C
S31500002540D3E7013B012B00D965E70229F6D04546C2
S315000025508A46C5E7280000F0A7FA7626431F76428A
S315000025609D4040F2000940F2000A361A25E740462F
S3150000257000F09AFA4246431F9A40361A90460021C6
S31500002580763E2EE749460232114389461E00022155
S3150000259027E740F20C09FF2640F2030A0DE7012364
S315000025A01B1A1B2B9FDC9E3229009540D9406A1EC0
S315000025B095410D436B0704D00F232B40042B00D00D
S315000025C004356B0116D5012000238EE73C004546F5
S315000025D08A467FE73C0045468023DB032B435B02AC
S315000025E0FF205B0A81E780230024FF20DB037CE7D2
S315000025F032003BE7AB0100205B0A76E71E000321B1
S315000026007C40F7E6FFFFFFF7F0B546464F46D64655
S3150000261043025B0AC0B59C461F00DE004B025A0A05
S31500002620904645004A002D0EC40F120EC90F9B0995
S31500002630FF2A25D001204140A81A8C420FD000283D
S3150000264000DC8AE192BB002B00D19CE0421E0128EF
S3150000265000D14FE1FF2800D19BE010002CE00028BC
S3150000266000DC87E1002A00D182E0FF2D00D190E056
S315000026708022D20413431B2800DCEAE001363FE047
S315000026802800FF388246002B54D140F20109484603
S3150000269041408C4200D1C4E05046002800D187E07A
S315000026A00C00002D4CD0FF2000273AE0FF2D00D172
S315000026B06FE08022D204134301221B2807DC20216D
S315000026C0091A1A008B40C240591E8B411A43B61A8A
S315000026D073016AD5B601B709380000F0E5F9053887
S315000026E08740854200DD7EE020223B00401B013012
S315000026F0121A3E009340C6405A1E934100251E43BF
S31500002700730704D00F233340042B00D00436730123
S315000027103AD5681CFE2DC6D09B4BC0B233409B01F8
S315000027205F0AC0053843E4072043E0BCBA46B14619
S31500002730A846F0BD8C4264D0D0B3002D00D0A3E0F3
S31500002740FF20F6B1471E012800D1E1E00C00FF286A
S3150000275000D1CDE001211B2F07DC2020C01B31005A
S315000027608640F940701E8641314315005E1AAFE778
S315000027704BB1421E012800D1A0E0FF2809D010006D
S3150000278079E70C001E000500F3089C46FF2D00D0DB
S315000027909BE06346002B00D185E780276346FF0355
S315000027A01F437F02FF207F0ABBE77307AAD1EBE72F
S315000027B0FE206A1C10421AD1002D77D1002E00D1BE
S315000027C0AAE00020002BACD08022F71AD2041742D0
S315000027D000D1BBE001249B1B0C4013429FD06A4AE8
S315000027E0013013409BE7684E2D1A3E4088E7F71AE2
S315000027F07A0157D4002F00D06EE70024002000276E
S315000028008FE780B1002D73D1FF20002EBAD0411E74
S31500002810012853D0FF286BD01B296EDD15005E1CE6
S315000028206EE7514659BBFE216A1C114233D1002D79
S3150000283050D1002E00D186E00020002B00D170E799
S31500002840F318DF087F027F0A5B0100D469E70120E5
S3150000285067E72021091A1A008B40C240591E8B4196
S315000028601343F6187301A0D50135FF2D00D11AE7E1
S315000028700123464A3340760816401E4340E7002DA2
S3150000288000D010E7FF20C0E70C00C44681E7FE2118
S315000028906A1C0A42CDD0FF2A00D104E7F6181500BB
S315000028A076082DE701249F1B0C4015E7E6BB002B9D
S315000028B045D180270024FF20FF0332E7F6180225C2
S315000028C07301D5D4F3089C46012563465F027F0A4F
S315000028D0E8B226E766B1002B00D15EE78023DB0372
S315000028E09C4500D259E7984500D356E7C44654E7BD
S315000028F0C4464EE70125F61AEAE630002025C84010
S31500002900691A8E40711E8E4106431500F618A9E716
S315000029100C0001259E1BDBE6002B00D16DE7012490
S31500002920474600200C40FCE6002B00D135E780230B
S31500002930DB039C4500D230E7984500D32DE7012400
S31500002940C4460C4029E747460020EAE617B1BF0116
S315000029507F0AE6E600240027E3E6002800D127E701
S31500002960571B3800002D00D1EBE68020C0040C0078
S315000029700643EFE600288AD0511B0DB9080044E74C
S315000029808020C004064347E7FFFFFFFBFFFFFF7DF4
S3150000299070B598B1C317C5185D40C40F280000F084
S315000029A083F89E2301001B1A962B0FDC082831D0D2
S315000029B008398D406D026D0AD8B202E0002400206D
S315000029C00025C0052843E407204370BD992B15DC7C
S315000029D0421F95402A00150010480540560709D0A9
S315000029E00F263240042A05D004356A0102D59F23FA
S315000029F005405B1AAD016D0AD8B2E2E70522121A4C
S31500002A002800D0400A001B3295402A00551EAA41D4
S31500002A100243E0E76D0296206D0AD2E7FFFFFFFB57
S31500002A2070B542024300C40FFE201B0E591C550A06
S31500002A3008420BD040F2803C6D07120B63441B0525
S31500002A401343E40723432800190070BDABB9EDB169
S31500002A50280000F029F80A281FDC0B232A001B1A7D
S31500002A60DA40030015339D4040F2893140F2FF738E
S31500002A701203091A120B0B40E1E755B1130B802222
S31500002A8012031A436D0740F2FF73D8E700230022B2
S31500002A90D5E740F2FF730022D1E703002A000B3B83
S31500002AA09A400025E0E7C0461C2101231B049842FA
S31500002AB001D3000C10391B0A984201D3000A0839C9
S31500002AC01B09984201D30009043902A2105C401880
S31500002AD07047C04604030202010101010000000024
S31500002AE000000000F0B51F00002316008BB09F42C7
S31500002AF004DA802109067B181F002D23129A149DE3
S31500002B001370202303229D43462D07D02B00453BFF
S31500002B1059424B411099013ACB18109309AB0493D3
S31500002B2008AB0393139B00920293109B3200019310
S31500002B303B0000F02FFF0400472D1AD1119BDB0745
S31500002B4010D5109BC31807930022002330003900CC
S31500002B5002F068FC08B1079B09933022099B07998C
S31500002B608B421FD32000099B159A1B1B13600BB0C9
S31500002B70F0BD109BC3180793462DE5D10378302B83
S31500002B800BD1002200233000390002F04BFC20B9A3
S31500002B900123109A9B1A139A1360139B079A1B68BA
S31500002BA0D318D0E7591C09911A70D7E7F7B52B232C
S31500002BB00270002901DA494202334370092926DDF1
S31500002BC06B46DA1D15000A2791FBF7F63B007343A7
S31500002BD0CB1A30331400013A13700B003100632B0B
S31500002BE0F2DCA61E3031831C31703200190095428A
S31500002BF008D80022B54202D309326A44121B9B1838
S31500002C00181AFEBD177801320F700131EFE7302335
S31500002C1030318370C170031DF2E7FFFFF0B597B046
S31500002C200D000A921C9C0B93099000F0BDFD0368F1
S31500002C3018000D9300F01FFE00230F9014932B7EB7
S31500002C4007220C932B680E930E992368C90542D56B
S31500002C509B1893431A000832226001221E685F689F
S31500002C607B005B0811931096AE64EF64109811997F
S31500002C70A54B524204F08EFA00282ED110981199D5
S31500002C800122A14B524202F0DDFB30BB00220023A1
S31500002C903000390002F0CCFB18B12B002D22433353
S31500002CA01A700C9B472B2AD8984F032300240E9AA0
S31500002CB02B6101339A432A600B9B290000930998E4
S31500002CC00A9B15AA00F0E2F9013000D09EE001202F
S31500002CD0404217B0F0BD0733BBE732003B0030007F
S31500002CE0390004F057FA70B1002F03DA2B002D22B9
S31500002CF043331A700C9B472B03D8854FD5E7854F76
S31500002D00D3E7854FD1E720220C9C6B6894435A1C6D
S31500002D1046D107336B6040F200430E9A0AA913436B
S31500002D2000222B60069214AA05920C9A0193049233
S31500002D3013AA03922322521802926B683200009360
S31500002D4009983B00FFF7CEFE139A0700472C2DD1BA
S31500002D50D31C02DB6B689A4245DD0C9B023BDBB25F
S31500002D600C93280013990C9A013950301391FFF7F0
S31500002D701DFF149A040013182B61012A02DC2A682D
S31500002D80D20701D501332B6123230AAA9B181B788E
S31500002D90002B00D190E72B002D2243331A708BE7CE
S31500002DA0472CB8D1002BB6D10133B3E70C9B652B6A
S31500002DB0D7D90C9B662B18D16B68002A08DD2A61CF
S31500002DC013B92968C9070AD501339B182B6106E098
S31500002DD01BB901222968114200D09A1C2A61139B53
S31500002DE00024AB65D0E767230C931399149B994293
S31500002DF006DB2B682961DB07F1D501312961EEE796
S31500002E0001220029E1DC9218521ADEE72A685305EE
S31500002E1008D42B693A000A9909980B9CA0470130FF
S31500002E2028D154E70C9B652B00D8DAE0A86CE96C36
S31500002E300022002302F0F6FA98B30123374A0A99D2
S31500002E4009980B9CA047013000D140E7149E139BC4
S31500002E50B34202DB2B68DB070CD50B9C0F9B0D9A4C
S31500002E600A990998A0470024013000D12FE7731E64
S31500002E70A3420ADC2B689B0700D505E1159BE86891
S31500002E80984200DB25E7180023E72A0001230A9968
S31500002E9009980B9F1A32B847013000D117E7013461
S31500002EA0E5E7139B002B3BDC01231C4A0A99099892
S31500002EB00B9CA047013000D109E7149E139B3343B6
S31500002EC013B92B68DB07D5D50F9B0D9A0A9909987C
S31500002ED00B9CA0470023013000D1F8E60C93139B0E
S31500002EE00C9A5B42934201DC330093E72A000123EC
S31500002EF00A9909980B9C1A32A047013000D1E6E6E0
S31500002F000C9B0133EAE7C046FFFFEF7FD475000054
S31500002F10DC750000D8750000E0750000E47500005F
S31500002F20149BAE6D0C939E4200DD1E00002E31DC1C
S31500002F30F3430024DB1733400E93AE6D0E9BF31A5A
S31500002F40A34230DC139B0C9A9A4238DC2B68DB07D1
S31500002F5035D4139C0C9B0C9A9B1B141B9C4200DDC6
S31500002F601C00002C34DCE3430026DB171C40139BBB
S31500002F700C9AD31A1B1BB34200DC7BE72A00012301
S31500002F800A9909980B9F1A32B847013000D19EE67C
S31500002F900136ECE733003A000A9909980B9CA047E2
S31500002FA00130C5D193E62A0001230A9909980B9EA0
S31500002FB01A32B047013000D189E60134BDE70F9BD4
S31500002FC00D9A0A9909980B9CA0470130C1D17EE65B
S31500002FD0BA1923000A9909980B9EB0470130C2D14D
S31500002FE075E6149B0C93012B02DC01231A4238D0A0
S31500002FF001233A000A9909980B9EB047013000D187
S3150000300065E60F9B0D9A0A9909980B9EB047013009
S3150000301000D15CE6A86CE96C0C9B0022013B0C938A
S31500003020002302F0FFF9D0B90C9B7A1C0A99099883
S315000030300B9EB04701300ED149E62A0001230A99BA
S3150000304009980B9F1A32B847013000D13FE6013686
S315000030500C9B9E42F1DB2A0023005032DBE6002661
S31500003060F6E73A00E2E72A0001230A9909980B9E3F
S315000030701932B047013000D129E60134EB68159AC0
S315000030809B1AA342EFDCF9E60024F7E7F7B5160032
S3150000309001938A680B690C000090934200DA1300D2
S315000030A022003360433212780AB101333360236859
S315000030B09B0602D533680233336022680623150067
S315000030C01D401A4227D0230043331B785A1E9341D2
S315000030D02268920630D4220001990098089D433256
S315000030E0A847013025D00622236800251340042B6B
S315000030F005D13368E568ED1AEB43DB171D40A3687D
S315000031002269934201DD9B1AED180026B54220D1B3
S31500003110002010E00135E36832689B1AAB42D2DD2D
S315000031202200012301990098089F1932B8470130FF
S31500003130F0D101204042FEBD3020E1184331087035
S3150000314021005A1C45310978A21843320233117006
S31500003150C1E72200012301990098089F1A32B84757
S315000031600130E6D00136D1E7F0B50E0089B0049201
S31500003170039005930C00097E0E9A4336782907D8EA
S31500003180622909D8002900D1B7E0582900D1A0E06A
S3150000319025004235297022E0080063381528F7D843
S315000031A002F026F916001F00F6FFF6FFF6FFF6FFFF
S315000031B01F00F6FFF6FFF6FFF6FF9E003400430001
S315000031C0F6FFF6FFAF00F6FF3400F6FFF6FF470006
S315000031D0250013684235191D1B6811602B700123E9
S315000031E09CE013682068191D050609D51B68116047
S315000031F0002B02DA2D225B4232700A225B4832E053
S315000032001B6811604006F3D51BB2F1E7106825680C
S3150000321008C82F0602D46D0600D59BB2106008229E
S3150000322052486F291BD00A2219E0202321680B433C
S31500003230236078214E4823004533197015682168AC
S3150000324008CD0F0602D44F0600D59BB21560CA07FB
S3150000325002D520220A432260002B3CD010222100F6
S31500003260002543310D706168A160002908DB40F23A
S31500003270040C674625681943BD432560350061B1D6
S315000032803500B3FBF2FC61465143591A415C013DDE
S315000032902970190063468A42F3D9082A09D123689E
S315000032A0DB0706D5626823699A4202DC3023013DBA
S315000032B02B70761B2661059B210000930398049BC7
S315000032C007AAFFF7E3FE01302CD10120404209B0E6
S315000032D0F0BD2648AFE7202122688A432260BDE779
S315000032E013682568181D616910601B682F0601D5D3
S315000032F0196002E06D06FBD51980002335002361B5
S31500003300D9E71368191D11601D680021280062683D
S3150000331000F09DFA08B1401B6060636823610023DA
S315000033203370C8E72A00236904990398059DA847C6
S315000033300130CAD023689B0715D4079BE0689842E2
S31500003340C5DA1800C3E72200012304990398059EF5
S315000033501932B0470130B8D00135E368079A9B1A95
S31500003360AB42F0DCE9E70025F7E7C046E67500006A
S31500003370F7750000002310B5040003604360836006
S3150000338081814366C281036143618361190008221A
S315000033905C3000F001FA0B4B246263620A4BA362B5
S315000033A00A4BE3620A4B23630A4B9C4205D00A4B45
S315000033B09C4202D0094B9C4203D12000583000F0B9
S315000033C043FA10BDD5350000FD3500003536000046
S315000033D06136000064430020CC43002034440020C2
S315000033E010B5034A0349044800F06AF810BDC04608
S315000033F00C400020C95100001C40002041680B4BC6
S3150000340010B50400994201D001F0DEFEA168084B18
S31500003410994202D0200001F0D7FEE168054B99429F
S3150000342002D0200001F0D0FE10BDC046644300204B
S31500003430CC4300203444002010B5094B094A04212E
S315000034401A6009480022FFF795FF01220921074863
S31500003450FFF790FF022212210548FFF78BFF10BDF0
S315000034609C440020E133000064430020CC4300204C
S315000034703444002010B5024800F0E7F910BDC046FC
S31500003480A544002010B5024800F0E0F910BDC04682
S31500003490A544002010B50400FFF7ECFF236A13B122
S315000034A0FFF7F0FF10BD044B2362044B1B68002B93
S315000034B0F6D1FFF7C1FFF3E7FD3300009C4400207F
S315000034C0F7B51400002600900191A5686768013FD2
S315000034D004D52468002CF8D13000FEBDAB89012B41
S315000034E008D90E22AB5E013304D029000098019B57
S315000034F0984706436835EAE70FB407B5054904ABB4
S31500003500086804CB8168019301F0C6FC03B008BCCF
S3150000351004B0184718400020036A70B505000E0075
S3150000352084680BB9FFF7B6FF636EDB0705D4A38982
S315000035309B0502D4A06D00F088F9A3891B0701D56D
S315000035402369F3B92100280000F0CEF8C8B101259F
S315000035506D42636EDB0705D4A3899B0502D4A06D7B
S3150000356000F074F9280070BD0136A360002B04DA60
S31500003570A2699A4216DC0A2914D023685A1C2260D2
S315000035801970A3683178013B0029EDD1A360002BA7
S315000035900FDA220028000A3100F068F80130D6D090
S315000035A00A25D6E72200280000F060F80130E8D1AD
S315000035B0CDE723685A1C22600A221A70F0E7FFFF43
S315000035C010B5034B01001868FFF7A6FF10BDC046F3
S315000035D01840002070B50C000E25495F00F00AF96E
S315000035E0002803DB636D1B18636570BDA389024A5F
S315000035F01340A381F9E7C046FFEFFFFFF8B51F00B0
S315000036008B8905000C001600DB0505D50E23C95E67
S315000036100022022300F0DCF8A389054A28001340A3
S31500003620A38132000E23E15E3B0000F0F5F8F8BD01
S31500003630FFEFFFFF70B50C000E25495F00F0C8F8DC
S31500003640A389421C03D1054A1340A38170BD41F2F0
S3150000365000021343A3816065F8E7C046FFEFFFFF52
S3150000366010B50E23C95E00F0A3F810BDF8B506002C
S315000036700D00140018B1036A0BB9FFF70BFFA3691D
S31500003680A360A3891B0701D5236943B92100300034
S3150000369000F02AF818B101256D422800F8BD23690B
S315000036A02068EFB2C01A6369EDB2834205DC2100DF
S315000036B0300001F089FD0028EDD1A3680130013BFF
S315000036C0A36023685A1C22601F706369834204D07A
S315000036D0A389DB07E1D50A2DDFD12100300001F0F7
S315000036E073FD0028D9D0D6E72A4B70B505001868B7
S315000036F00C0018B1036A0BB9FFF7CCFE0C22A35ECF
S315000037001A0722D4DA0607D409222A6040220120A9
S315000037101343A381404237E05B0712D5616B41B189
S3150000372023004433994202D0280000F009FF002309
S3150000373063632422A3899343A381002363602369DF
S3150000374023600823A2891343A38123695BB940F24E
S31500003750802140F20022A3890B40934203D021002E
S31500003760280001F083FD0C22A35E01211A000A4005
S315000037700B420AD00022A26062695242A26122690B
S3150000378000200AB91A06C1D470BD990700D462692F
S31500003790A260F4E71840002003008218934200D18B
S315000037A0704719700133F9E7004870475841002007
S315000037B0002370B5054D040008002B6003F08EFD54
S315000037C0431C02D12B6803B1236070BDA0440020C6
S315000037D070B50400080011001A000023044D2B6088
S315000037E003F098FD431C02D12B6803B1236070BD22
S315000037F0A044002070B50400080011001A00002340
S31500003800044D2B6003F090FD431C02D12B6803B1DD
S31500003810236070BDA044002070B5040008001100AC
S315000038201A000023044D2B60FCF74AFF431C02D10B
S315000038302B6803B1236070BDA0440020014B1868BB
S315000038407047C04618400020704770477047C9B29D
S315000038508218904201D10020704703788B42FBD03A
S315000038600130F6E7002310B59A4200D110BDCC5CBA
S31500003870C4540133F8E70023C25C0133002AFBD1AC
S31500003880581E7047F0B503690C69050089B0002021
S31500003890A3426ADB0B00013C1433A00004931B18FF
S315000038A005932B00143318180193059B02681B68B7
S315000038B00133B2FBF3F602969A422FD3019B049F83
S315000038C09C4600230393079308CF029A9EB2564361
S315000038D0039A1B0CB618029A5343320C9B181A0C07
S315000038E0039262461268B6B206926A46128B9BB281
S315000038F0921B079E9219069E360CF31A16149E19F1
S3150000390033140793634692B23604324304C39C468B
S31500003910059BBB42D8D20368002B2BD0280001F0B0
S3150000392085F9002820DB0027019E0499336801C928
S3150000393003936B469B8982B29A1A039BD219000C99
S315000039401B0C1B1A10141B181F1492B21B041A43CB
S31500003950059B04C68B42E9D2019AA300D3181A68C4
S315000039608AB1029B01330293029809B0F0BD036845
S3150000397023B9013C019B04388342F8D32C61CDE77F
S315000039801A6822B9013C019A043B9A42F8D32C6189
S31500003990E7E7FFFFF0B514001D00C6699DB00A9465
S315000039A00B95259F03907EB9102000F011FE039B16
S315000039B00200D86120B9EF21BF4BC048FEF76AF973
S315000039C0466086600660C660039BDB69196859B16C
S315000039D05A68012393404A608B60039800F0F4FE16
S315000039E00022039BDB691A60002D19DA01233B6074
S315000039F06B005B080B930B9FB14BB14A3B40934264
S31500003A001DD142F20F73249A13603B031B0B234311
S31500003A10002B01D100F069FD269B63B9A94B23E079
S31500003A2000233B60E7E7A84B0893A84B269A136050
S31500003A3008981DB0F0BDA34B0893A54BF6E70A9A6C
S31500003A400B9B12921393129813990022002301F0F4
S31500003A50E9FC060050B10123249A1360269B13B19A
S31500003A609C4B269A13609C4B0893E1E71AAB019393
S31500003A701BAB00930398129A139B01F089F97A0005
S31500003A80520D0590002A79D0139B18961903934B73
S31500003A90090B0B43924957181298139919000022E3
S31500003AA0904B02F0A5FF904A904B02F0C7FC904A5B
S31500003AB0904B01F0E5FC040038000D0003F0BEFB5E
S31500003AC08D4A8E4B02F0BAFC02000B002000290042
S31500003AD001F0D6FC04000D0003F078FB00220490F0
S31500003AE000232000290001F0A3FC58B1049803F03C
S31500003AF0A5FB2B00220001F095FC43425841049B94
S31500003B001B1A049301231593049B162B0FD81298A6
S31500003B1013997B4ADB009B181A685B6801F088FCE6
S31500003B20002849D0049B013B0493002315930022EF
S31500003B301A9B0992DB1B5A1E40D50122D31A099300
S31500003B4000230E93049B002B3ADB049A0E9B9446AB
S31500003B5063440E93002314920F93229B0124092B96
S31500003B6062D8052B02DD0024043B2293229B981E7B
S31500003B70032863D801F032FC54563A2D1B9B1A9E3B
S31500003B80F61840F23243F218202A10DD40239B1A21
S31500003B909F4040F21243F318DC403800204303F004
S31500003BA079FB0122574B771ECB18189276E7202314
S31500003BB020009B1A9840F2E71590B8E70E92C1E7ED
S31500003BC0099B049A9B1A099353420F93002314935B
S31500003BD0C3E70123239A10939446049B63440693F8
S31500003BE001330C93002B08DC012306E0012310931C
S31500003BF0239B002B26DD06930C93039A0021D069A4
S31500003C000422150014359D4221D94160039800F025
S31500003C109BFD0890F0B9020040F2AF113A4BCCE69A
S31500003C200023E4E70023D5E7002310942293013B09
S31500003C30002206930C9313332392DEE7012310939D
S31500003C40023BF5E701231A0006930C93F4E70131D2
S31500003C505200D6E7039B089ADB691A600C9B0E2B71
S31500003C6000D9D1E0002C00D1CEE0049B002B60DD12
S31500003C700F2223491340DB005B181E685F68049B14
S31500003C8002241D11DB050AD5129813991F4B154006
S31500003C901A6A5B6A01F076FF0A900B9101341B4B9E
S31500003CA00D93ADBB0A980B9932003B0001F06AFFF9
S31500003CB00A900B9157E0C046157600002C7600005E
S31500003CC00000F07F117600000876000010760000F4
S31500003CD014760000E5750000E47500000000F03F72
S31500003CE001FCFFFF0000F83F61436F63A787D23FE7
S31500003CF0B3C8608B288AC63FFB799F501344D33FD5
S31500003D0040770000000010FE85760000187700005E
S31500003D1001231D4209D0E4180D9B30001A685B6828
S31500003D20390002F08BFB06000F000D9B6D10083367
S31500003D30B6E7049B0224B3B1129813995D420F2390
S31500003D40D34A2B40DB009B181A685B6802F076FBAF
S31500003D50012700230A900B91CE4E2D11002D00D085
S31500003D6093E0002BA4D10A9E0B9F159B002B00D13C
S31500003D7096E0002230003900C74B01F059FB0028BD
S31500003D8000D18DE00C9B002B00D189E0069B002B17
S31500003D9036DD049B0022013B0D933000BF4B3900FA
S31500003DA002F04CFB0A900B91069B01342000119304
S31500003DB003F044FA0A9A0B9B02F040FBB84B002230
S31500003DC001F05EFBB74B0600CF18119B002B6BD1A1
S31500003DD00A980B990022B44B02F00AFE32003B000F
S31500003DE004000D0001F038FB002800D0A8E2802175
S31500003DF009067B1832002000290001F019FB40BBA0
S31500003E00129B139C0A930B941B9B002B00DA71E107
S31500003E10049A0E2A00DD6DE1D3009D4A9B185C686A
S31500003E201B6806930794239B002B00DBE6E00C9BA4
S31500003E30002B00DDE2E063B90698079900229A4B51
S31500003E4002F0FCFA0A9A0B9B01F010FB002800D145
S31500003E5079E200263700239B089CDB430D930497E9
S31500003E6000273100039800F0AFFC049B002B00D123
S31500003E70BAE02FB19F4203D03900039800F0A4FCAA
S31500003E800499039800F0A0FCAEE03D4205D03268EC
S31500003E90736802F0D3FA3B0001346D1008365DE713
S31500003EA0049B0D930C9B81E7119B794A013BDB0038
S31500003EB010999B181A685B6800294CD000207B4932
S31500003EC001F060FE32003B0002F092FD089A060007
S31500003ED094460F00089B1693119B634411930A980E
S31500003EE00B9903F073F9050003F0A8F902000B0023
S31500003EF00A980B9902F07CFD169B30355C1C1D70F0
S31500003F0032003B000A900B9101F092FA00286BD127
S31500003F100A9A0B9B0020604902F06AFD32003B00C2
S31500003F2001F086FA002800D0C4E0119BA34200D11C
S31500003F3066E7002230003900584B02F07FFA002273
S31500003F4006000F000A980B99544B02F077FA169464
S31500003F500A900B91C3E73000390002F06FFA089D12
S31500003F60119A2B00944616901791634419930A9858
S31500003F700B9903F02BF9040003F060F90B00020023
S31500003F800A980B9902F034FD3034199B2C700135D8
S31500003F9006000F00AB422AD116981799089B119C70
S31500003FA09C460022414B644401F06AFA02000B0071
S31500003FB03000390001F050FA002800D07AE0169A55
S31500003FC0179B0020394902F013FD02000B00300058
S31500003FD0390001F02DFA002800D111E72300013C39
S31500003FE02278302AFAD01C000D9B049340E0002270
S31500003FF02A4B02F023FA0A900B91B8E70C9B089D16
S31500004000013B5B190C930A9E0B9F069A079B300097
S31500004010390001F0B7FD03F0D9F8099003F00EF965
S31500004020069A079B02F00AFA02000B0030003900DC
S3150000403002F0DEFC2B00099A013530321A700C9A18
S315000040402C009A4249D102000B0001F019FA069A97
S31500004050079B06000F0001F0FFF948BB069A079B75
S315000040603000390001F0DEF910B1099BDD071FD4DD
S315000040700599039800F0A8FB00232370049B249A5B
S3150000408001331360269B002B00D1D1E41C60CFE4E2
S3150000409040770000187700000000F03F0000244041
S315000040A000001C400000C0FC000014400000E03F7F
S315000040B0049B0D9323001C00013B1A78392A08D172
S315000040C0089A9A42F7D10D9A089901320D92302238
S315000040D00A701A7801321A7086E70022C04B02F085
S315000040E0ADF90022002306000F0001F09BF900281D
S315000040F08BD0BDE7109F0F9D099CAFB1229A012A74
S3150000410000DDDDE0189A002A00D1D3E040F2334208
S315000041109B18099A0121D21809920E9A0398D3186E
S315000041200E9300F003FC070074B10E9B002B0BDD11
S315000041300E9A2300944200DD1300099AE41AD21A5B
S3150000414009920E9AD31A0E930F9BF3B1109B002B74
S3150000415000D1CDE085B139002A00039800F0A4FC17
S31500004160059A01000700039800F0F6FB0600059982
S31500004170039800F029FB05960F9B5A1BAB4204D00F
S315000041800599039800F090FC05900121039800F032
S31500004190CDFB149B0600002B00D1AEE11A000100F6
S315000041A0039800F081FC229B06000025012B13DCFE
S315000041B00A9B00256BB90B9B1B0353B9894B0B9AC2
S315000041C0134206D0099B0135013309930E9B013337
S315000041D00E93149B012043B1336903339B00F318FC
S315000041E0586800F055FB2023181A0E9B1818020079
S315000041F01F231A40184200D180E001339B1A042B7A
S3150000420078DD1C239B1A099AE418D21809920E9A93
S31500004210D3180E93099B002B05DD1A000599039808
S3150000422000F09AFC05900E9B002B05DD31001A006C
S31500004230039800F091FC0600159B002B60D031001E
S31500004240059800F0F3FC00285ADA049B0A22013B89
S315000042500D9305990023039800F0D8FA109B05905A
S31500004260002B00D150E1002339000A22039800F008
S31500004270CDFA069B0700002B4CDC229B022B45DD6A
S31500004280069B002B00D0E6E531000522039800F0DE
S31500004290BDFA06000100059800F0C8FC002800DC05
S315000042A0D9E5089B089A5C1C312313700D9B0133DA
S315000042B00D93D4E536231A9A0F9D9B1A099C28E77D
S315000042C00C9B5D1E0F9BAB4208DB5D1B0C9B002B02
S315000042D0F4DA099B0C9A9C1A00231AE70F9B149A8E
S315000042E0EB1AD31814930F95099C00250C9B10E725
S315000042F00F9A45E7042B8DD01C3384E71300FBE7A8
S31500004300049B0D930C9B0693002BB6DD109B002B94
S3150000431000D1FDE0002C05DD39002200039800F0F5
S315000043201BFC0700049705B37968039800F00CFAA4
S31500004330040060B9020040F2EF212B4BFFF73DFB72
S31500004340119E3700ADE7049B0C9E0D93F9E73900EB
S315000043503A690C31023292000C30FFF783FA0122DF
S315000043602100039800F0F8FB0490089B069A099335
S31500004370013B9B1801220F930A9B13400E933100B9
S315000043800598FFF77FFA390005000C90059800F0B4
S315000043904DFC049A0A903100039800F063FC012258
S315000043A0C36804003035069223B90100059800F071
S315000043B03DFC06902100039800F006FA099B229A1C
S315000043C05C1C069B13430E9A13437BB9392D29D0E7
S315000043D00A9B002B01DD0C9D3135099B1D7040E5C4
S315000043E0000024400000F07F857600000A9B002B29
S315000043F004DB229A13430E9A1343FBB9069B002B48
S31500004400EBDD05990122039800F0A6FB310005902B
S3150000441000F00CFC002803DC0028DED1EB07DCD51D
S31500004420392DD8D13923099A137023001C00013B7A
S315000044301A78392A50D001321A7012E5069B002BE1
S3150000444003DD392DEED00135C7E7099B099A1D70AA
S315000044500F9B93422BD000230A220599039800F064
S31500004460D5F9049B05909F4209D1390000230A2201
S31500004470039800F0CBF90700049009947FE7390010
S3150000448000230A22039800F0C1F9002307000A223C
S315000044900499039800F0BAF90490EEE7069B01240C
S315000044A0002B00DD1C0004970027089B1C190599AA
S315000044B00122039800F050FB3100059000F0B6FB96
S315000044C00028B2DC08B9ED07AFD423001C00013B7D
S315000044D01A78302AFAD0C4E4089A9A42A6D10D9BDB
S315000044E001330D9331231370BBE4269B002B01D0BF
S315000044F0FFF799FA114BFFF7B7FA229B012B00DC65
S3150000450056E60120149D70E6069B002B00DCB4E6FF
S31500004510002431000598FFF7B5F9089B303018558F
S31500004520069B01340500A342B8DD00230A22059943
S31500004530039800F06BF90590EBE7C046087600009B
S3150000454070B505000C0079B1043C2368002B00DA35
S31500004550E418280000F0E8F81C4A13682BB96360D9
S315000045601460280000F0E8F870BDA34208D920685E
S3150000457021188B42F3D119685B6809182160EEE7B0
S315000045801A005B680BB1A342FAD911685018A04211
S315000045900BD120680918501811608342E1D11868C0
S315000045A05B68411811605360DBE7A04202D90C2317
S315000045B02B60D6E7206821188B4203D119685B6807
S315000045C00918216063605460CBE7C046AC44002004
S315000045D010B5034B0100186800F026F810BDC04660
S315000045E01840002070B50F4E0D003168040011B957
S315000045F000F09CFE30602900200000F097FE431C6E
S3150000460003D101256D42280070BD0323C51C9D43BF
S31500004610A842F8D0291A200000F088FE0130F2D115
S31500004620EFE7C046A8440020F7B50322CB1C93430E
S31500004630083305001F000C2B34D20C27B94233D89F
S31500004640384E280000F070F833681C00002C2FD17B
S3150000465039002800FFF7C6FF0400431C5FD1346809
S315000046600094009B002B4AD1002C52D023682800CE
S31500004670E3180099019300F059FE019B834248D14B
S3150000468023682800FF1A3900FFF7ACFF013040D03D
S315000046902368DB19236033685A68002A33D1009BEC
S315000046A0336019E0002BC9DA0C232B600020FEBD15
S315000046B02168C91B20D40B290AD9E2192760A34215
S315000046C004D1326063681160536005E05A60F9E70F
S315000046D06268A3420ED13260280000F02DF8200057
S315000046E007220B30231D9043C21A9842DFD01B1AB3
S315000046F0A350DCE75A60EFE723006468A6E7009C56
S3150000470063680093ADE71A005B68A342FBD1002300
S31500004710DAE70C2328002B6000F00EF8C6E70760E6
S31500004720DAE7C046AC44002010B50248FFF78DF822
S3150000473010BDC046A444002010B50248FFF786F815
S3150000474010BDC046A444002070B5C56906000C0023
S3150000475075B91020FFF73CFF0200F06120B96B210C
S31500004760174B1848FDF796FA456085600560C560E9
S31500004770F569EB688BB1F369A200DB689B181868D2
S31500004780B8B901210D00A5406A1D3000920000F065
S31500004790DDFD60B1446085600DE02122042130001A
S315000047A000F0D4FDF369E860DB68002BE3D100205C
S315000047B070BD02681A6000230361C360F8E7C04653
S315000047C0157600009676000070B5C66905000C00E7
S315000047D076B91020FFF7FCFE0200E86120B98F21B0
S315000047E0084B0948FDF756FA466086600660C660C3
S315000047F03CB1EB696268DB6892009B181A6822601C
S315000048001C6070BD1576000096760000F7B50F00A7
S3150000481001900C001E0000200D6914373B68013022
S3150000482099B251431B0C534389190E0C9B191E0C4C
S3150000483089B21B045B1808C78542EFDC16B3A36870
S31500004840AB4219DC616801980131FFF77DFF070073
S3150000485028B90200BA210C4B0C48FDF71BFA2100BF
S3150000486022690C31023292000C30FEF7FBFF210068
S315000048700198FFF7A9FF3C002B1D9B00E3180135AB
S315000048805E6025612000FEBD8576000096760000FC
S315000048904FF6FF7203000020934201D81B0410302C
S315000048A080225204934201D208301B028022520514
S315000048B0934201D204301B018022D205934201D2D9
S315000048C002309B00002B03DB0130134200D1202075
S315000048D070470368010007221800104013420DD0EC
S315000048E0063A0020134205D10230034203D0D340DA
S315000048F010000B6070479B080B60FBE79AB20AB981
S3150000490010201B0CDAB20AB908301B0A1A0701D1AB
S3150000491004301B099A0701D102309B08DA07EBD451
S315000049205B080130002BE7D12020E3E710B50C002F
S315000049300121FFF709FF30B9020040F24511044B8F
S315000049400448FDF7A7F901234461036110BDC04681
S315000049508576000096760000F0B514000A69236992
S315000049600D0089B09A4202DB23000C001D00276966
S315000049702E696168BB190093A368BA19934200DADD
S315000049800131FFF7E1FE844630B9020040F26211C0
S31500004990434B4448FDF77EF90200BB1914329B00D5
S315000049A0D3180193002113000198834228D32300D2
S315000049B0BF00143304931435DB19B6000293AB1908
S315000049C0079304230593230002991533994205D3CF
S315000049D00C1B153CA4080134A3000593079B9D42BC
S315000049E010D3009B002B05DD019B043B01931B6844
S315000049F0002B51D063466046009A1A6109B0F0BD9B
S31500004A0002C3D1E72C68A4B2FCB100231700049EB0
S31500004A10039308CE396806936B461B8B88B26343B3
S31500004A201B180398090C1B180698000C60434018C5
S31500004A30190C4118080C9BB209041943029B0390F8
S31500004A4002C7B342E5D8059BD0502C68240C04B3AA
S31500004A50002110001368049E03913168076889B22B
S31500004A6061433F0CC919039F9BB2C9190F041F4329
S31500004A70076080CE43683F0C67439BB2090CFB1866
S31500004A805B18190C039102990430B142E5D80599D7
S31500004A90535004350432A1E7009B013B0093A0E785
S31500004AA08576000096760000F7B50323150007000B
S31500004AB00E001A401D4208D02449013A920052586D
S31500004AC000233100FFF7A2FE0600AD10DDB3FC693E
S31500004AD07CB91020FFF77CFD0200F86128B940F28E
S31500004AE0B3111B4B1B48FDF7D5F844608460046086
S31500004AF0C460FB699C6801934CB940F2712138008F
S31500004B00FFF714FF019B0400986000230360012354
S31500004B101D420AD0310022003800FFF71DFF310088
S31500004B2001903800FFF750FE019E6D105DB12068C0
S31500004B3038B9220021003800FFF70EFF002320605D
S31500004B4003600400E3E73000FEBDC0460C770000BA
S31500004B501576000096760000F0B50C001600236965
S31500004B60571185B0FB180193013300934968A36878
S31500004B700290009A93420FDB0298FFF7E5FD0023AF
S31500004B80010005001A00143160B9020040F2DE117E
S31500004B90244B2548FDF77EF801315B00E9E79800D4
S31500004BA00A500133BB42FADBFB43DB171F40BF0051
S31500004BB023001F20C91937002269143392009A185E
S31500004BC00740064228D00130C01B03908C460020C7
S31500004BD01E68BE400643604640C08446039E01CB25
S31500004BE0F0409A42F4D8260015360423B24204D384
S31500004BF0131B153B9B0801339B00C85010B1019B4A
S31500004C0002330093009B0298013B21002B61FFF7C2
S31500004C10DBFD280005B0F0BD01CB01C19A42FBD8EF
S31500004C20F0E7C046857600009676000030B50B6941
S31500004C3004690200E01A9C420FD114329B00143121
S31500004C401400C918D218043A043915680B689D4235
S31500004C5004D001209D4200D2023830BD9442F2D3E6
S31500004C60FBE7FFFFF0B50C0087B0009011002000B5
S31500004C701700FFF7DBFF050088B901000098FFF772
S31500004C8063FD020028B940F237213F4B3F48FDF74C
S31500004C9001F8012345610361100007B0F0BD00264D
S31500004CA0B04203DA23003C001F0001366168009819
S31500004CB0FFF74AFD020018B940F24521324BE5E7FD
S31500004CC02369143400939B00E318210001943C00EF
S31500004CD002933B6914349B00E31803930300C660F8
S31500004CE08C460020143304930593634620CBA9B267
S31500004CF00E009C4608CC2D0C99B2711A09181B0C93
S31500004D000814EB1A1B18181489B21B041943059BC7
S31500004D1002C30593039BA342E7D83900039C1531D0
S31500004D2004238C4204D3E31B153B9B0801339B00F1
S31500004D300199CD1804992E00CB181F0002998E42B6
S31500004D4010D3029CE91E00208C4204D321000331BB
S31500004D50491B890888001B18043B196881B1009B10
S31500004D60136199E7844602CE88B2604400140C0CA5
S31500004D7004196144201489B22404214302C7DDE7E3
S31500004D80009901390091E7E78576000096760000E4
S31500004D90F7B5012116001F00FFF7D6FC040030B955
S31500004DA0020040F20F31234B2348FCF773FF7D00CE
S31500004DB03B036D0D1B0B15B1802252031343019368
S31500004DC01EB368460096FFF784FD019B0099D0B19B
S31500004DD020221E00121A96403200C3400A43626126
S31500004DE00193019EA661731E9E4101362661A5B1FF
S31500004DF03526124BED18089B2D181D60099B361A97
S31500004E001E602000FEBD6161EBE701A8FFF761FDB2
S31500004E10019B012663612030E8E7094BC018089B17
S31500004E201860084BF3189B00E3185869FFF730FD2C
S31500004E307601E3E78576000096760000CDFBFFFF5E
S31500004E40CEFBFFFFFFFFFF3F936810B5013B93606A
S31500004E50002B04DA9469A34207DB0A2905D01368FC
S31500004E60581C10601970080010BDFEF7FFFB01000A
S31500004E70F9E7F8B506000F001400D518AC4201D1C9
S31500004E80002007E021783A003000FFF7DDFF01340B
S31500004E90431CF3D1F8BDFFFFF0B5A1B00D0017001C
S31500004EA01E00039018B1036A0BB9FEF7F3FA6B6E96
S31500004EB0DB0705D4AB899B0502D4A86DFEF7C5FCBC
S31500004EC0AB891B0701D52B6993B929000398FEF717
S31500004ED00BFC68B16B6EDB0703D50120404221B0A5
S31500004EE0F0BDAB899B05F8D4A86DFEF7AFFCF4E7DF
S31500004EF0002308AC6361203363761033A3760796EC
S31500004F003E0033780BB1252B46D1F31B0593BE42E9
S31500004F100BD03A0029000398FFF7ABFF013000D110
S31500004F20AEE06369059A9B1863613378002B00D164
S31500004F30A6E0012200235242626004A954325218AC
S31500004F40771C2360E360A3601370A365052239789C
S31500004F505748FEF77CFC7E1C00BB2268D30604D5AE
S31500004F60532304A95B1820211970130704D5532372
S31500004F7004A95B182B2119703B782A2B17D03E0009
S31500004F80002140F20A0C0127E3683278701C303A9F
S31500004F90092A4DD989B917E00136B2E7444B226890
S31500004FA0C01A01238340134337002360CEE7079BD3
S31500004FB0191D1B680791002B01DB0B9304E05B4274
S31500004FC0E36002231343236033782E2B0CD17378CE
S31500004FD02A2B33D1079B02361A1D1B680792002B1A
S31500004FE001DA01235B420993324F032238003178FC
S31500004FF0FEF72DFC30B14023C01B834022680136EA
S3150000500013432360317806222B48771C2176FEF75E
S315000050101EFC002843D0294B33BB0722079B0733CE
S315000050209343083307936369049A9B18636167E7A0
S3150000503061464B43060039009B18A6E7002340F261
S315000050400A0C1A000127013663603178701C30396A
S31500005050092903D9002BC7D00992C5E763465A43ED
S3150000506006003B005218F0E707AB00932A00210028
S31500005070134B0398FDF7D2FD0490049B0133D2D164
S315000050806B6EDB0705D4AB899B0502D4A86DFEF7D2
S31500005090DDFBAB895B0600D51FE70D981FE707AB65
S315000050A000932A002100064B0398FEF75DF8E3E71C
S315000050B0F0760000F6760000FA7600001D2C00005F
S315000050C0734E0000F7B50C228B5E05000C001A0724
S315000050D053D44A68002A02DC0A6C002A4BDDE76AD0
S315000050E0002F48D0002241F200002E682A601A00E4
S315000050F0216A0240034230D0626DA3895B0705D561
S315000051006368D21A636B0BB1236CD21A0023280092
S31500005110E76A216AB847A289431C06D129681D2976
S3150000512044D8284BCB40DB0740D500236360236976
S315000051302360D20404D5431C01D12B6803B96065F2
S31500005140616B2E60B9B123004433994202D0280026
S31500005150FFF7F6F9002363630DE001232800B84743
S315000051600200431CC9D12B68002BC6D01D2B01D0D1
S31500005170162B1AD12E6000201EE00E69002EFAD0E2
S315000051800F680E60BA1B019200229B0700D14A6984
S31500005190A260019B002BEEDDA36A32001F002800EF
S315000051A0019B216AB847002807DCA2894023012019
S315000051B013431BB2A3814042FEBD019B36181B1A46
S315000051C00193E6E7010040200B6970B505000C006D
S315000051D013B90025280070BD18B1036A0BB9FEF794
S315000051E059F90C22A35E002BF3D0626ED20704D4C9
S315000051F09B0502D4A06DFEF728FB28002100FFF7CF
S3150000520061FF636E0500DB07E4D4A3899B05E1D447
S31500005210A06DFEF71BFBDDE770B50E001D000E232B
S31500005220C95E140096B000290CDAB28980231100F9
S3150000523019401A4214D140F200430020296023602D
S3150000524016B070BD6A4600F04FF80028EDDB4FF24D
S31500005250000301991940044BC9184B425941EAE72A
S3150000526000214023E9E7C04600E0FFFFF0B5022633
S315000052708B8905000C0085B0334207D023004733E5
S31500005280236023610123636105B0F0BD03AB02AA6D
S31500005290FFF7C2FF029F019039002800FFF7C4F90B
S315000052A040B90C22A35E9A05EED4032293431E4313
S315000052B0A681E3E78023A28920601343A381039B91
S315000052C0206167615BB128000E23E15E00F01EF8E5
S315000052D028B10323A2899A43023B1343A381A389DE
S315000052E0019A1343A381CFE7002370B5064D04004E
S315000052F0080011002B6001F0FBFF431C02D12B6854
S3150000530003B1236070BDC046A0440020002370B5E1
S31500005310054D040008002B6001F0F4FF431C02D188
S315000053202B6803B1236070BDA0440020002370B534
S31500005330054D040008002B60FCF71AFE431C02D141
S315000053402B6803B1236070BDA04400200B0C70B520
S31500005350150CEBB965B989B294B24C432100FFF73D
S3150000536063F90500D0B122000021FEF715FA15E019
S315000053702B1C0C1C89B292B24A439BB2A1B2594370
S31500005380140C0C19230C33B9240492B21443E5E728
S315000053900DB9141CEEE70C2300250360280070BD30
S315000053A082B001B901A910002AB133B113780B609C
S315000053B01078431E984102B0704702204042FAE737
S315000053C00300080029B1FF2A04D98A2201201A60A5
S315000053D04042704701200A70FBE7FFFF02B47146A6
S315000053E049084900095C49008E4402BC7047C04622
S315000053F003B47146490840004900095E49008E44DD
S3150000540003BC70478446100062468C46190063460A
S3150000541000E0C0461FB500F0A3FF002801D400211C
S31500005420C8421FBD10B500F0E9FE4042013010BD74
S3150000543010B500F095FF002801DB002010BD01200B
S3150000544010BDC04610B500F08BFF002801DD00201E
S3150000545010BD012010BDC04610B500F013FF002896
S3150000546001DC002010BD012010BDC04610B500F0C3
S3150000547009FF002801DA002010BD012010BDC0463A
S31500005480F0B5CE46474680B50D0383B00092019332
S315000054904E00C300CC0F690A450F0D439946009A8A
S315000054A0019B19035F00D80F530F009A490A760D26
S315000054B07F0D0B43AC46D200F11B844200D1BBE00A
S315000054C0002900DC82E0002F00D1F9E040F2FF70F5
S315000054D0864200D19CE10125382914DC8020000495
S315000054E003431F2900DD06E220201D00401A170095
S315000054F082408540CF40501E82413D43CB401543FC
S315000055006246D31A9C464B465D1BA94580416346BD
S3150000551040421B1A984643461B0200D445E14346C7
S315000055205B025B0A98464346002B00D11EE14046CB
S31500005530FDF7BAFA0100083920222F00531A404617
S31500005540DF4088403B008D4003438E4200DDCDE1C5
S31500005550881B29000130121AC14095408846691EF1
S315000055608D41190091400A004146C34029430D0070
S315000055709846002615436B0709D00F232B40042BB2
S3150000558005D02B1DAB42AD416D42A8441D004346DC
S315000055901B0200D4C4E240F2FF7301369E4200D1E2
S315000055A0DFE04146D04A334011400A005707ED0874
S315000055B052022F43120B1B051343E4072343380003
S315000055C0190003B0C0BCB946B046F0BD002900D1F1
S315000055D08AE0B91B002E00D076E12C004D462C4304
S315000055E0002C00D1D2E14C1E012900D155E240F237
S315000055F0FF75A94200D108E20125382C13DC2100F1
S315000056001F2900DD08E2202465464E46641AA5409F
S31500005610CE4035434E46A6403400661EB44125436F
S315000056206446CC401B1B551BAA42924152429B1A10
S31500005630984604003E006EE7002900DCBAE0002F21
S3150000564000D083E018001043002800D1F3E0481E84
S31500005650012900D1ACE140F2FF75A94200D1D7E0A3
S315000056600125382810DC01001F2900DDBAE12020C1
S315000056701D00401A170082408540CF40501E8241CF
S31500005680CB403D4315439C444D444D4580414042EB
S315000056906044804643461B0200D486E040F2FF7316
S315000056A001369E425DD042468F4B01211A401300BF
S315000056B029406A080A43DD075B08984615435AE7FE
S315000056C018001043002800D1B5E0481E012900D17A
S315000056D07DE140F2FF75A94200D199E00125382805
S315000056E000DD10E70100FCE640F2FE75771C3D4246
S315000056F000D0D5E04F4665463D431F001743002EB8
S3150000570000D047E1002D00D1BAE1002F00D178E1A9
S315000057104D46AD1AA8466546C145B641ED1A7642D4
S31500005720AD1B80263604354200D109E24C46151BD6
S31500005730AA429241644652421B1B9A1A324200D137
S3150000574017E2694B04001A4001232FE740F2FF706D
S3150000575086425DD00125382996DC8020000403436B
S3150000576082E740F2FF730022002724E72800FDF7B6
S315000057709BF9010018311F2900DCDDE62B000838F3
S3150000578083408E4200DDC5E0891B481C1F2800DCD3
S31500005790CAE11D001F39CD40202805D04022121A2B
S315000057A093405A1E93411D4300266B0700D0E4E642
S315000057B0310009E100294ED0B91B002E00D1B4E01A
S315000057C040F2FF70874200D123E10125382917DC1A
S315000057D08020654600040543AC461F2900DD8CE1A8
S315000057E0202065464E46401A8540CE4035434E46FB
S315000057F086403000461EB04105436046C8401B182F
S31500005800AD1895429241524290463E00984441E777
S315000058104B46DA0863465F071743DD082B003B4318
S31500005820002B00D1A0E1802212032A43120340F28A
S31500005830FF73120BBFE64B46DA0863465F07DD08C7
S3150000584040F2FF7317439942E8D040F2FF732A03F0
S31500005850120B0B40AFE640F2FE70771C384278D14F
